:020000040800F2
:10000000380800204D020008BB380008C331000842
:10001000B938000821150008513D00080000000013
:10002000000000000000000000000000BF380008D1
:10003000E916000800000000BD380008C1380008BB
:1000400067020008670200086702000867020008EC
:100050006702000867020008351700083B17000810
:1000600041170008471700084D17000867020008ED
:1000700067020008670200086702000867020008BC
:10008000670200086702000867020008000000001D
:1000900000000000000000000000000067020008EF
:1000A000670200086702000867020008670200088C
:1000B0006702000855390008670200086702000857
:1000C000670200086702000867020008670200086C
:1000D00067020008453D00086702000800000000B4
:1000E00067020008670200086702000800000000BD
:1000F000000000000000000000000000670200088F
:10010000000000006702000867020008670200089C
:1001100000000000000000000000000000000000DF
:1001200061160008670200086702000867020008FD
:10013000670200080000000000000000000000004E
:10014000000000000000000000000000670200083E
:1001500067020008670200086702000867020008DB
:1001600067020008670200080000000000000000AD
:10017000000000000000000000000000000000007F
:1001800000000000670200080000000000000000FE
:100190006702000800F002F800F049F80AA090E8B1
:1001A000000C82448344AAF10107DA4501D100F032
:1001B0003EF8AFF2090EBAE80F0013F0010F18BFB6
:1001C000FB1A43F001031847383F0000583F000076
:1001D000103A24BF78C878C1FAD8520724BF30C873
:1001E00030C144BF04680C60704700000023002445
:1001F00000250026103A28BF78C1FBD8520728BF37
:1002000030C148BF0B607047662903F0118700209A
:1002100070471FB503F007FF00F0B0FB040000209B
:10022000002103F073FEE0601FBD10B510BD00F0AB
:10023000A5FC1146FFF7EDFF03F0BAFD00F0C3FC8B
:1002400003B4FFF7F2FF03BC00F006FD0948804746
:1002500009480047FEE7FEE7FEE7FEE7FEE7FEE7A8
:10026000FEE7FEE7FEE7FEE704480549054A064BC0
:100270007047000045390008950100083802002049
:1002800038080020380400203804002053EA020C0B
:1002900000F069802DE9F04B4FF00006002B1FBFE6
:1002A000B3FA83F503FA05F424FA05F65E4012BFAB
:1002B0001643B2FA82F502FA05F4C5F120051EBF15
:1002C00022FA05FC44EA0C04203556EA044C4FEAB5
:1002D000144418BF641C4FF000084FF0000990420E
:1002E00071EB030C39D3002919BFB1FA81F701FA78
:1002F00007F6B0FA80F700FA07F6C7F120071EBF2D
:1003000020FA07FC46EA0C062037B6FBF4FCA7EB04
:100310000507103F07F01F0BCBF120060CFA0BFB73
:100320002CFA06F644BFB3460026202FA4BF5E4633
:100330004FF0000B5BEA060C08BF4FF0010B19EB06
:100340000B09ABFB027C48EB0608C01B06FB02CC8A
:100350000BFB03CC71EB0C01C1E70B460246414697
:100360004846BDE8F08B13B54FF000004FF0000198
:10037000AFF30080BDE81C40704700000FB41CB50F
:100380000C0007AA009001D02044401E074B7B447C
:1003900069460190069800F0D0FA002C03D0694617
:1003A000002000F0DDFA1CBC5DF814FBD90500004C
:1003B0002DE9F0474FF0000A89460446C0F820A016
:1003C0002046E1688847002876D0252806D0D4E961
:1003D00001219047206A401C2062F1E7E168204635
:1003E00000258847C4F81CA006460027C4F818A0BA
:1003F0002A2E09D0304603F0D4FC38B304EB87082A
:10040000303EC8F8186019E059F8041B204604EB88
:1004100087029161E1688847012F064618D1E0699B
:10042000002820DA25F020051DE0D8F8180000EBA0
:10043000800006EB40003038C8F818002046E1681C
:100440008847064603F0ADFC0028EED1012F0AD004
:100450002E2E08D12046E16888477F1C0646022FD1
:1004600045F02005C4DBA069002803DA404245F0CE
:100470000105A061E80701D025F01005B6B1A6F18D
:100480004100192802D8203645F400654A46314615
:10049000204625604D46FFF7B7FE58B1012806D02B
:1004A000ED1D25F0070000F1080989E704E005F1DA
:1004B000040985E730468AE7206ABDE8F0874FF0F7
:1004C000000200B5134694469646203922BFA0E8A4
:1004D0000C50A0E80C50B1F12001BFF4F7AF0907B0
:1004E00028BFA0E80C5048BF0CC05DF804EB8900A1
:1004F00028BF40F8042B08BF704748BF20F8022BE4
:1005000011F0804F18BF00F8012B704770477047FB
:10051000704770472DE9FF4F0C461E464FF0FF37DE
:100520008BB0D2E90001DDF860800A908A46C1F301
:100530000A5505B93D46002108464FF00000BAF1C2
:10054000000F00F4400005DA00EB80004FF440019A
:1005500001EA50004FEA9059B9F1010F00DDB946A8
:100560000A9850EA4A000ED044F61050A5F2FF3522
:1005700045432F14B8F1000F1ED07542291E1EDD11
:10058000C9F100021CE0B8F1010F4FF0000001D0EA
:10059000302103E0F24305E02154401CB042FBDB74
:1005A00030460022002121540B99C1F80880C1E98E
:1005B00000200FB0BDE8F08FBD1B6D1CDEE74A4682
:1005C00000DA694206A800F063FA06AB93E8070078
:1005D00003AB83E8070050460A9900F044FB8DE81E
:1005E0000700A0F500501F3800900398002D0ADD89
:1005F00042F21F014A460844002303A903906846BB
:1006000000F0ADFD09E0A0F500504A461F38002378
:1006100003A90390684600F0B7FD8DE807000004C9
:10062000000C03D04FF0FF30410800E01046B8F155
:10063000000F03D00022009215461EE0751E05D45F
:1006400000F0A0F9303262556D1EF9D5B346012293
:10065000084302D000227F1C04E02078302801D11A
:1006600000227F1E002A099784D01DE0112D07DA91
:1006700000F088F9303262556D1C50EA0102F5D164
:10068000084302D00098C8B10EE00021681E05E0C2
:10069000235C625C63542254401E491C8142F7DB98
:1006A000AB46A81B401E0990002004F80B000B98D5
:1006B000099AC0F80880C0E9002B7AE711264FF0AC
:1006C000000857E72DE9F04F88460446D21D22F076
:1006D000070191B0D1E90001CDE90A0103F039FB2E
:1006E00002460B98C00F01D02D2007E0206881073B
:1006F00001D52B2002E0202101EAC000032A099045
:1007000001D0072A05DB03464146204600F080F968
:100710000BE12078800601D5E06900E00620B8F101
:10072000650F814606D0B8F1660F18D0B8F1670F93
:1007300070D131E00020B9F1110F009001DB1123DD
:1007400001E009F101030AAA01A90CA8FFF7E2FEE2
:10075000DDE90C70002609F10105834647E0012020
:100760004B4600904FF000470AAA01A90CA8FFF7DA
:10077000D1FEDDE90DB00C995D46002610B909F1F6
:1007800001000D18B9EB050003D4C0F1FF3609F1E3
:100790000105A5EB09002BE0B9F1010F01DA4FF0DB
:1007A00001090020B9F1110F0090484601DD112325
:1007B00000E003460AAA01A90CA8FFF7ABFEDDE999
:1007C0000C704D4600268346207800070AD4AB45BE
:1007D00000DA5D4601A8012D04DD411911F8011C64
:1007E000302907D04F4502DA17F1040F04DA01204F
:1007F00082460FE06D1EEEE7002F02DCED1B3E444B
:1008000003E0781CA84200DD7D1CB81B00F1010A42
:100810004FF000472078000703D4AA4501DB4FF0D2
:10082000FF3A0021B7F1004F0DF143088DF8431056
:1008300024D002202B23002F01DA7F422D230A210E
:10084000021EA0F1010000DC5FB197FBF1FC97FBF9
:10085000F1F201FB1C7C17460CF1300C08F801CDBD
:10086000EEE7A8F1010003702188090501D54521B3
:1008700000E06521A0F1010800F8011C09980FA90A
:10088000A1EB0807FF1D00B10120411901EBEA703F
:10089000A1693844081A401EA0612078C00602D41D
:1008A0002046AFF30080099828B1D4E90121904790
:1008B000206A401C20622078C00622D52046AFF373
:1008C00000801EE0002E04DBB34502DD01A8805D40
:1008D00000E03020D4E901219047206A401C2062CA
:1008E000761CAAF101005FEA000A0AD100F046F87E
:1008F000C0680168405CD4E901219047206A401C2F
:100900002062281EA5F10105DCDC07E0D4E9012105
:1009100018F8010B9047206A401C2062381EA7F18E
:100920000107F3DC2046AFF30080032011B041E65D
:1009300001694A1C02610878704700B58FB0CDE9A3
:1009400001310021059105497944CDE90310114693
:100950006846FFF72DFD0FB000BD0000E5FFFFFF6B
:100960000A6802F8010B0A607047D1E900239A4235
:1009700002D2531C0B601070704700000048704793
:10098000F801002030B5B0F10A024FEA900E71F183
:1009900000034EEA817EB0EB0E0061EB91014FEA5D
:1009A000101E4EEA017E10EB0E0041EB11114FEAD2
:1009B000102E4EEA016E10EB0E0041EB11214FEAB2
:1009C000104E4EEA014E10EB0E0041EB1141401863
:1009D00041F100014FEAD00040EA41704FEAD101F5
:1009E00010EB80054FEA810444EA907444EB010463
:1009F0006D1944EB0404521BA3414FF0000348BFA0
:100A00000A3200D530BD401C41F1000130BD00006C
:100A10002DE9F0411F46044603260168072A01F428
:100A2000006004DB08B116A505E016A503E008B1D7
:100A300015A500E015A521F010002060A069C01EDA
:100A4000A0610FB1401EA0612046AFF300804FB1FE
:100A5000D4E9012138469047206A401C2062C01C1E
:100A6000206206E0206AFAE7D4E9012115F8010BBB
:100A70009047761EF8D22046AFF30080BDE8F081A3
:100A80004E414E006E616E00494E4600696E660032
:100A90002DE9F047814616468AB0354878440DC89E
:100AA0008DE80D0032487844801C03AC0DC884E802
:100AB0000D0041F69B300844372190FBF1F290FB8A
:100AC000F1F5A5F1800501FB12041B3C02D564423F
:100AD000012000E00020DFF898A080460027FA44BB
:100AE000AAF1BE0A0EE0E0070AD03246684607EBDC
:100AF000470101230AEB810100F046FB8DE8070066
:100B000064107F1C002CEED1194F7F44AE3F19E0DA
:100B1000E80715D007EB04100DF1180A90E80E0055
:100B20008AE80E00C068F04201D198190890324658
:100B3000012306A903A800F027FB03AB83E8070005
:100B40006D10641C002DE3D14FF00103324669465D
:100B5000B8F1000F03A802D000F001FB01E000F0A3
:100B600013FBC9E90001C9F808200AB0BDE8F08705
:100B70004036000000487047D80100207546FFF756
:100B8000F9FFAE4605006946534620F0070085464A
:100B900018B020B5FFF768FBBDE820404FF0000615
:100BA0004FF000074FF000084FF0000B21F0070155
:100BB000AC46ACE8C009ACE8C009ACE8C009ACE898
:100BC000C0098D46704710B50446AFF3008020463B
:100BD000BDE81040FFF734BB4FF0013C50F8042B48
:100BE00051F8043B9A4221D1A2EB0C03934313EA40
:100BF000CC1317D150F8042B51F8043B9A4215D16D
:100C0000A2EB0C03934313EACC130BD150F8042B43
:100C100051F8043B9A4209D1A2EB0C03934313EA27
:100C2000CC13DBD04FF00000704700BFD01A01BAE0
:100C3000B1FA81F101F0180122FA01F0CB40C1F1C3
:100C40002001DBB2C0B2C01A2CFA01F3D11A9143D1
:100C500011EAC311E6D1704701491820ABBEFEE787
:100C60002600020070475FEA400C08BF91F0000FB9
:100C70004FEA8C234FEAC12243EA51514FEA1C50FC
:100C800018BF00F5F0404FEA300018BF41F00041B6
:100C90005FEA6C5C00F02980BCF1FF3F08BF40F0C8
:100CA00080407047130C06BF12044FF0100C4FF039
:100CB000000C130E04BF12020CF1080C130F04BF3A
:100CC00012010CF1040C930F04BF92000CF1020C02
:100CD000D30F04BF52000CF1010C11464FF000027B
:100CE000A0F11F00A0EB0C00704711F0004F08BFEF
:100CF000704731F000413FF4D5AF0B0C06BF09043B
:100D00004FF0100C4FF0000C0B0E04BF09020CF159
:100D1000080C0B0F04BF09010CF1040C8B0F04BF6E
:100D200089000CF1020CCB0F04BF49000CF1010C3F
:100D3000CCF12003A0EB0C0022FA03F302FA0CF230
:100D400041EA030100F10100704720F07F4C80EA86
:100D5000030023F07F47ACEB070303F57C5300F05F
:100D6000004003F1FF032DE980494FEA154B09B418
:100D70004FEA144325EA0B4E24EA03480FF20426F7
:100D800006EB132749083E785FEA320203FB066749
:100D9000C7F5000707FB06F64FEA54374FEAD64679
:100DA00006F1020607FB066CCCF1005C4FEA1C471B
:100DB0002CEA074C07FB06F40CFB06F504EB154682
:100DC0004FEA961634BF00204FF000404FEAD1376B
:100DD00006FB07FC4FEA1C4C0CFB0BF7D21B03FB7A
:100DE0000CF761EB07010CFB0EF7B0EB074072EB61
:100DF00017420CFB08F734BFA2EB0742B2EB0742E5
:100E000061EB17414FEA0C444FEA910706FB07FCE0
:100E10004FEA1C4C0CFB0BF7B0EBC74072EB5732A0
:100E200003FB0CF734BFA2EBC742B2EBC74261EB46
:100E300057310CFB0EF7B0EBC70072EB57720CFB8F
:100E400008F734BFA2EBC702B2EBC70261EB5771E0
:100E5000039F4FEA816141EA921104EBCC044FEA0F
:100E6000D1374FEA826206FB07FC42EA90124FEA52
:100E700080604FEA1C4C0CFB0BF7D21B03FB0CF7FA
:100E800061EB07010CFB0EF7B0EB074072EB17426A
:100E90000CFB08F734BFA2EB0742B2EB074261EB51
:100EA00017414FEA8C554FEA910704EB9C2406FB4F
:100EB00007FC4FEA1C4C0CFB0BF7B0EBC74072EB86
:100EC000573203FB0CF734BFA2EBC742B2EBC74269
:100ED00061EB57310CFB0EF7B0EBC70072EB5772AA
:100EE0000CFB08F734BFA2EBC702B2EBC70261EB01
:100EF000577115EB4C254FEA816141EA92114FEA97
:100F000082624FEAD13742EA901206FB07FC44F1B5
:100F100000044FEA80604FEA1C4C0CFB0BF7D21B1D
:100F200003FB0CF761EB07010CFB0EF7B0EB07407E
:100F300072EB17420CFB08F734BFA2EB0742B2EB8F
:100F4000074261EB174115EB1C154FEA813141EA6D
:100F500092414FEA823242EA90424FEA80304FEAB1
:100F60000C7644F1000448EA03434EEA0B484FF084
:100F7000000EB2EB080C71EB030724BF6246394642
:100F80004EEB0E0E4FF0000B0018524149414BEB57
:100F90000B0BB2EB080C71EB03077BF1000B24BFCA
:100FA000624639464EEB0E0E4FF0000B00185241D0
:100FB00049414BEB0B0BB2EB080C71EB03077BF1D8
:100FC000000B24BF624639464EEB0E0E51EA020773
:100FD00018BF46F0010616EB0E7655F1000254F1EB
:100FE000000103D5BDE88901BDE80088BDE889019D
:100FF000BDE80048B619524141EB0101A3F10103DC
:10100000704780807F7E7D7C7B7A79787776767575
:101010007473727171706F6E6E6D6C6C6B6A6A69ED
:101020006868676666656464636362616160605F87
:101030005F5E5E5D5D5C5C5B5B5A5A595958585700
:101040005756565555555454535352525251515068
:1010500050504F4F4F4E4E4D4D4D4C4C4C4B4B4BBB
:101060004A4A4A4949494848484747474746464601
:10107000454545444444444343434342424242413C
:101080004141002B9C4630D477002BD01CB54FEA51
:10109000370703B44FF010004FF01001BAF1000F02
:1010A00006D0BCF1000FDCBF40F0080040F00801A2
:1010B0004FF000000FBCBDE810400BF1010BBBF17D
:1010C000010F08BF5FEA170722BF12F1010211F1F9
:1010D00001014FF0004143F1000300F0004043EAFA
:1010E00000007047F9D35708D0E746EA064613F1E7
:1010F000400F4FEA16461FDD13F1200FDFBF1643E6
:101100000A46002120335B42BED0C3F1200746EAE5
:10111000064602FA07F74FEA164646EA0706C3F103
:10112000200722FA03F201FA07F721FA03F14FF040
:10113000000342EA0702A7E746EA020646EA064635
:101140004FEA164646EA0106BCBF46EA0646360C9A
:101150004FF000034FF000024FF0000194E72DE93B
:10116000804C9A46934670B491E8380007C831EA3B
:10117000400C48BF34EA430C03D5FFF7E6FDFFF708
:1011800080FFF0BCBDE8008C2DE9804C9A46934668
:1011900070B491E8380007C810F0804F08BF13F012
:1011A000804F03D100F005F8FFF76BFFF0BCBDE8FE
:1011B000008C20F07F4780EA030023F07F4C07EB90
:1011C0000C03A3F57C5300F00040A3F1FE0392F062
:1011D000000F00F0B38095F0000F00F077802DE94C
:1011E00001494FEA11404FEA144621EA004800FB4A
:1011F00006FC24EA064708FB06F607FB08F800FB96
:1012000007F718EB06484CEB164C4FEA124B18EB5D
:1012100007484FEA15464CEB174022EA0B4E0BFBF2
:1012200006FC25EA06470EFB06F607FB0EFE0BFB47
:1012300007F71EEB064E4CEB164C4FF000061EEB6C
:10124000074E4CEB174B18EB0B0840F1000018EB66
:101250000E0B58EB000840F100008F1A4FF0000110
:101260003CBFC943661B14BFB5EB040C00213CBF57
:10127000C943F61B4FEA17444EEA8E0E27EA04458F
:101280004FEA1C4704FB07622CEA074C05FB07F7F3
:101290000CFB05F604FB0CFC16EB074642EB174271
:1012A00016EB0C4642EB1C421BEB060658EB020207
:1012B000414146EA9E0601D5BDE80189B619524171
:1012C00041EB0101A3F10103BDE801894FEA144597
:1012D0004FEA114724EA054621EA074C05FB07F4CB
:1012E00006FB07F70CFB06F105FB0CFC11EB0741B5
:1012F00044EB17444FEA124711EB0C4144EB1C44FA
:1013000022EA074C05FB07F206FB07F70CFB06F683
:1013100005FB0CFC16EB074642EB174216EB0C469E
:1013200042EB1C456A1854F1000148BF7047B619DA
:10133000524141EB0101A3F10103704795F0000F09
:1013400037D04FEA11424FEA144721EA024624EA15
:10135000074C02FB07F106FB07F70CFB06F402FB48
:101360000CFC14EB074441EB17414FEA154714EB13
:101370000C4441EB1C4125EA074C02FB07F506FB38
:1013800007F70CFB06F602FB0CFC16EB074645EBD9
:10139000174516EB0C4645EB1C42121951F10001A2
:1013A00048BF7047B619524141EB0101A3F1010357
:1013B00070474FEA14454FEA114724EA054621EAEF
:1013C000074C05FB07F106FB07F70CFB06F24FF095
:1013D000000605FB0CFC12EB074241EB174112EB38
:1013E0000C4251EB1C4148BF7047921841EB010180
:1013F000A3F1010370470000464910B54A6822F482
:1014000040324A604A6843681A434A6001684A6841
:1014100022F480724A6001684A68036942EA032242
:101420004A6001684A6822F040724A6001684A686E
:1014300083681A434A6001688A6822F400628A60FD
:1014400001688A68C3681A438A60816A6FF07062B3
:10145000D14201688A6822F070628A6001688A68F5
:101460000CD0836A1A438A6001688A6822F040526D
:101470008A6001688A68C36A1A4301E022F0405218
:101480008A6001688A6822F002028A6001688A68BC
:10149000037E42EA43028A6090F820100029016826
:1014A0004A680FD042F400624A6001684A6822F438
:1014B00060424A6001684A68174C436A04EB433350
:1014C0001A4301E022F400624A600168CA6A22F409
:1014D0007002CA620168CA6A838B104C04EB035322
:1014E0001A43CA6201688A6822F400728A6001683D
:1014F0008A6890F8303042EA43228A6001688A683C
:1015000022F480628A6001688A68406942EA802029
:10151000886010BD0023014000E0FFFF0000F0FFE5
:10152000FEE7000070B5374CD4E90401A26900EB76
:10153000410101EB8201E26901EBC201A160E268B5
:1015400091425ED0304DC2B22021284600F021FDEC
:10155000227D1021284600F01CFD227E082128460D
:1015600000F017FD227F4FF40041284800F011FDE4
:10157000A0680021E060084602F08AF824A002F08A
:1015800025F80021012002F083F826A002F01EF8C1
:101590000021022002F07CF827A002F017F80021B9
:1015A000032002F075F829A002F010F80D210020A8
:1015B00002F06EF8206904F1300555F8200002F0C1
:1015C00005F80D21012002F063F8606955F820004C
:1015D00001F0FCFF0D21022002F05AF8A06955F835
:1015E000200001F0F3FF0D21032002F051F8E06923
:1015F00055F8200001F0EAFFBDE87040C82000F077
:101600005DBB70BD040000200004024000000240E9
:101610005048554E2053554F4E473A202020202009
:10162000000000004D415920424F4D3A202020201B
:101630002020202000000000515541543A20202055
:1016400020202020202020200000000044454E3A89
:10165000202020202020202020202020000000000A
:10166000014800F0F1B9000078010020016818235A
:10167000CAB2103AB2FBF3F2054B6FF30901032A29
:101680009B5CC36500D9091D816508467047000051
:101690004440000810B5014600208B698A6A4FF06B
:1016A000C07453B1B3F5005F15D072B1012A0CD0EC
:1016B000022A0AD0032A09D104E01AB1012A06D06D
:1016C000022A03D1C96AC90100D5012010BDC96A27
:1016D000A142FAD010BD002AF7D0012AF2D0022A86
:1016E000F3D0032AF3D010BD7047000030B40D488A
:1016F0000D4C0122036A0021A34201DD826100E05A
:1017000081610A4C436AA34201DA026100E001618F
:10171000074C836AA34201DA426100E0416130BCB8
:10172000FFF700BF040000200000F0410000A042CD
:1017300000004842012000F023BB022000F020BB43
:10174000042000F01DBB082000F01ABB102000F0A0
:1017500017BB72B6FEE7000078B50024009490F83D
:101760003C20012A19D0012280F83C200A68072376
:101770000568092A13D9EE680A3A02EB420293403F
:101780009E43EE600B788A680A3B03EB43039A4062
:101790000368DD682A43DA6010E0022078BD2E6914
:1017A00002EB420293409E432E610B788A6803EB62
:1017B00043039A4003681D692A431A614A681F233C
:1017C000072A13D205686E6B521E02EB8202934009
:1017D0009E436E630B790A885B1E92B203EB830310
:1017E0009A4003685D6B2A435A6327E005680D2A17
:1017F00012D22E6BD21F02EB820293409E432E63C5
:101800000B790A88DB1F92B203EB83039A400368CB
:101810001D6B2A431A6311E0EE6A0D3A02EB820255
:1018200093409E43EE620B790A880D3B92B203EB24
:1018300083039A400368DD6A2A43DA62164B05681F
:10184000144A9D4206D10D68122D03D1556845F406
:101850008005556005689D4218D10B68102B01D09A
:10186000112B13D1536843F4000353600968102906
:101870000CD10A490A4A0968B1FBF2F101EB810176
:10188000490000E0491E00910029FBD180F83C404E
:10189000002078BD002301400020014048000020C6
:1018A00040420F0070B504004FF0000503D0206CDB
:1018B000002610B107E0012070BD204600F01CF8A2
:1018C000666484F83C60206CC00610D4206C20F460
:1018D000885040F0020020642046FFF78DFD6664CA
:1018E000206C20F0020040F00100206400E001259F
:1018F00084F83C60284670BD70B586B00646142159
:101900006846FEF7DCFD1D493068884234D11C482A
:101910000025016841F480710160006800F4807066
:10192000059017481438016841F002010160006811
:10193000694600F002000590012000900320CDE9E7
:101940000105104800F028FA104C0F48C4E90005C2
:101950000015A560C4E90350400060618000A061EB
:101960004011C4E907052046656200F03DF908B161
:10197000FFF7EFFEB463A66306B070BD0020014020
:101980004438024000040240106402407801002004
:101990002DE9F0410446876D00F000FB064694F8FF
:1019A00035000025022806D08020606584F8345078
:1019B0000120BDE8F0812068016821F01601016076
:1019C0002068416921F080014161206C08B9A06C58
:1019D00020B12068016821F00801016020680168D9
:1019E00021F0010101600CE000F0D8FA801B05280D
:1019F00007D920206065032084F8350084F834502E
:101A0000D7E720680068C007EED194F85C103F204B
:101A10008840B860012084F8350084F834500020F4
:101A2000C7E790F83510022903D0802141650120D5
:101A30007047052180F835100068016821F0010128
:101A400001600020704700002DE9F84304464FF084
:101A50000009CDF8009063484FF41651A56D006859
:101A6000B0FBF1F72E6894F85C10082000FA01F141
:101A700031420FD021680A6852070BD50A6822F05C
:101A800004020A6094F85C108840A860606D40F021
:101A90000100606594F85C104FF0010808FA01F04D
:101AA000304208D021684969090604D5A860606DF4
:101AB00040F00200606594F85C10042088403042D9
:101AC00008D021680968890704D5A860606D40F0D6
:101AD0000400606594F85C1010208840304218D0F3
:101AE00021680968090714D5A860206801684903BE
:101AF00004D50068000308D5A16C07E00168C9059A
:101B000003D4016821F008010160216C09B120466D
:101B1000884794F85C1020208840304231D02168FA
:101B20000968C9062DD5A86094F8350005282068F5
:101B3000016806D0490347D5006800031DD4616CD5
:101B40001CE021F0160101602068416921F080014C
:101B50004161206C08B9A06C20B12068016821F0B7
:101B60000801016094F85C103F208840A86084F868
:101B7000358084F83490216D1FE0E16B09B1204677
:101B80008847606D00282BD0606DC00714D00520F9
:101B900084F835002068016821F001010160009897
:101BA000401C0090B84203D820680068C007F6D1F6
:101BB00084F8358084F83490E16C002910D001B0AD
:101BC0002046BDE8F04308470168C905D5D401683F
:101BD00021F01001016084F8358084F83490CCE75E
:101BE000BDE8F883480000202DE9F041044600F0EC
:101BF000D5F906465CB1022084F83500002584F84A
:101C000034502068016821F0010101600DE00120DD
:101C1000BDE8F08100F0C2F9801B052805D920201D
:101C20006065032084F83500F2E720680068C0078B
:101C3000F0D12268116820480140D4E9010318431B
:101C4000D4E903363343184363691843A36918433F
:101C5000E3691843236A18430843616A042903D1DE
:101C6000D4E90B1319430843106020684069666A81
:101C700020F0070130460E43012704280CD1A06A4A
:101C80000643E06A40B12046FFF704FD20B1402042
:101C9000606584F83570BAE7206846612046FFF732
:101CA000E5FC94F85C203F2191408160656584F8F3
:101CB00035700020ACE700003F8010F070B504469E
:101CC00000F06CF90546601C02D00448007804441A
:101CD00000F064F9401BA042FAD370BD3C00002024
:101CE00070B5254E254C054601280DD10121304601
:101CF00000F042F940B96068C0F101006060002066
:101D000020616061A061E0616068012833D1022D2B
:101D100006D0042D0ED0082D16D0102D1ED026E092
:101D20000221304600F028F908BB2069C0F101000B
:101D300020611CE00421304600F01EF9B8B960694A
:101D4000C0F10100606112E00821304600F014F992
:101D500068B9A069C0F10100A06108E01021304617
:101D600000F00AF918B9E069C0F10100E061BDE8CE
:101D70007040FFF7D7BB70BD000002400400002098
:101D8000044910B50A68024202D00860FFF7A8FFB4
:101D900010BD0000143C01402DE9F84FDFF8B8A158
:101DA0000022012403254FF00F090AF1040BAAF1C8
:101DB000040E00BF0B6804FA02F63340B34273D13D
:101DC0000F7907F00307012F01D0022F16D1876882
:101DD0004FEA420805FA08FC27EA0C07D1F80CC0C4
:101DE0000CFA08FC4CEA070CC0F808C04768B74377
:101DF0000E79C6F3001696403E4346600E79F643D0
:101E0000B6070DD0C768560005FA06FC27EA0C078E
:101E1000D1F808C00CFA06FC4CEA070CC0F80CC05C
:101E20000E7906F00306022E10D1D60800EB8608C4
:101E3000D8F8206057074FEAD76C09FA0CF7BE4371
:101E40000F6907FA0CF73743C8F8207006684FEAA5
:101E5000420C05FA0CF7BE430F7907F0030707FAA7
:101E60000CF7374307604E6816F4403F6DD03B4E89
:101E7000376847F480473760366822F0030706F476
:101E800080460096364E07EB060CDCF8086897078C
:101E90003F0F09FA07F826EA0806DFF8C880404530
:101EA00003D14FF000081EE04FE0DFF8BC80404552
:101EB00002D14FF0010816E0DFF8B080404502D1B2
:101EC0004FF002080FE0DFF8A880404502D14FF044
:101ED000030808E0DFF89C80404502D14FF0040879
:101EE00001E04FF0070808FA07F848EA0608CCF8BE
:101EF0000888DAF800605746D1F804C09E435FEACC
:101F0000CC2C00D51E433E60DBF800605F46D1F864
:101F100004C09E435FEA8C2C00D51E433E60DEF871
:101F200000607746D1F804C09E435FEA8C3C00D540
:101F30001E433E60084F083F3E68D1F804C09E43F0
:101F40005FEACC3C00D51E433E60521C102AFFF4D1
:101F500031AFBDE8F88F0000083C01404438024032
:101F6000003001400000024000040240000802402E
:101F7000000C0240001002400069084000D001201F
:101F80007047426921EA02030A4043EA0241816143
:101F900070470AB1816170470904FBE70148806816
:101FA000704700003C00002070B5040025D094F874
:101FB0003D00002520B984F83C50204600F04EF941
:101FC000242084F83D002068016821F001010160AF
:101FD0002068016841F4004101602068016821F433
:101FE0000041016000F0A4FA4D4A6168914201D8B5
:101FF0004C4900E04C49884201D2012070BD4B4958
:102000002368B0FBF1F15E6826F03F060E435E6088
:102010006368934206D94FF4967359434FF47A7329
:10202000B1FBF3F12368491C1E6A26F03F063143D9
:1020300019626168914210D84900401EB0FBF1F26C
:10204000521CC2F30B02042A01D2042022E0B0FB8E
:10205000F1F0401CC0F30B001CE0A268F2B301EBEE
:10206000C10303EB0116431EB3FBF6F35B1C43F401
:1020700080431B0549D092B301EBC10202EB011171
:10208000401EB0FBF1F0401CC0F30B0040F4804058
:1020900040F400402168CA694CF6FF739A4310432C
:1020A000C861D4E9071001432068026822F0C00229
:1020B00011430160D4E9030101432068826848F2BA
:1020C000FF339A4311438160D4E905010843216835
:1020D000CA6822F0FF021043C86001E00EE016E07B
:1020E0002068016841F0010101602564202084F826
:1020F0003D00256384F83E50002070BD01EB410691
:10210000431EB3FBF6F35B1CB3E70120C2E701EB10
:102110004101401EB0FBF1F0401CC0F30B00B7E7DB
:10212000A086010080841E0000093D0040420F008F
:102130002DE9F84F1F4690468A460446DDF8289060
:10214000FFF72CFF054694F83D0020287FD1192386
:10215000012240492046009501F034F9002876D14B
:1021600094F83C00012872D0012084F83C002068DB
:102170000168C90703D1016841F0010101602068CD
:10218000016821F400610160212084F83D001020E5
:1021900084F83E0000262664C4F824806785608D9C
:1021A00020852D48E0622B464A465146204601F0E4
:1021B0008FF890B9206841698069009036E02A461E
:1021C0004946204601F0A4F950B1206C042804D1FE
:1021D0002068016841F4007101600120BDE8F88FBA
:1021E000606A216800780861606A401C6062618DE5
:1021F000491E6185218D491E89B221852268536956
:10220000DB435B070BD451B100781061606A401C5E
:102210006062608D401E6085208D401E20852A46AC
:102220004946204601F0A2F80028CED1208D002892
:10223000C5D154F83D0B016841F4007101602020C4
:1022400004F81E09E67766770020C7E7FFE702205B
:10225000C4E70000020010000000FFFF10B586B0C8
:10226000044614216846FEF72AF91449206888427A
:1022700021D113480021026842F002020260006886
:1022800000F0020005904FF4407000901220CDE95C
:102290000101032003900420049069460948FFF7D8
:1022A0007BFD07481030016841F4001101600068AF
:1022B00000F40010059006B010BD0000005400406E
:1022C000303802400004024002488168027811441C
:1022D000816070473C0000200B4810B5016841F454
:1022E00000710160016841F480610160016841F49E
:1022F00080710160032000F06FF8002000F006F804
:1023000000F024F8002010BD003C024070B50D4DD7
:1023100004464FF47A712878B1FBF0F00A49096855
:10232000B1FBF0F000F00CFB48B9102C07D20022F2
:102330002146501E00F030F800206C6070BD012076
:1023400070BD00003C000020480000200A4808B58D
:10235000016841F480410160006800F48040009011
:102360000548001F016841F080510160006800F0DD
:102370008050009008BD000044380240002809DB6E
:1023800000F01F02012191404009800000F1E0208F
:10239000C0F8001170470000F0B40E4B1B680C46EB
:1023A000C3F30223C3F10705042D00D90425191D29
:1023B000072901D2002300E0DB1E012606FA05F101
:1023C000491E214099409E40761E16403143F0BC84
:1023D00001F0D7BC0CED00E0064900F007020868E8
:1023E0004FF6FF03184040EA0220034A10430860FA
:1023F000704700000CED00E00000FA052DE9F04701
:102400000E46050065D0DFF81481D8F80000F7B259
:1024100000F00700B04207D288F80070D8F800003A
:1024200000F00700B04254D128683D4C810712D516
:10243000400703D5206840F4E0502060287800076A
:1024400003D5206840F4604020602068A96820F02F
:10245000F000084320602878C0072DD03049686814
:102460000839012812D0022813D0032811D0096896
:10247000890700292DDA216821F003010143216039
:10248000FFF78CFD814641F2883A0EE00968890326
:10249000EFE709688901ECE7FFF780FDA0EB090190
:1024A000514502D90320BDE8F0872068696800F033
:1024B0000C00B0EB810FEFD1D8F80010404601F0CE
:1024C0000701B14207D90770006800F00700B04269
:1024D00001D00120E7E72878400705D52068E968A2
:1024E00020F4E050084320602878000706D52068D3
:1024F000296920F4604040EAC100206000F038F80B
:102500002168084AC1F30311515CC84006490860BC
:1025100006480068FFF7FAFE0020C4E7003C0240CE
:10252000083802404C4000084800002040000020CD
:102530000448054900680968044AC1F38221515CD6
:10254000C840704748000020083802405C4000083E
:102550000448054900680968044AC1F34231515CE6
:10256000C840704748000020083802405C4000081E
:10257000154810B5006810F00C02144813D0144927
:10258000042A0FD0082A0ED10F4C241F226823687A
:1025900002F03F025B0207D52068C0F38810A0FB61
:1025A000010106E0084610BD2168C1F38811A1FBB6
:1025B00000010023FDF76AFE2168C1F30141491CB7
:1025C0004900B0FBF1F010BD083802400024F400CF
:1025D00040787D012DE9F84F04006ED02078DFF8B7
:1025E0004C93C007A9F104054AD009F10400016821
:1025F000C1F38101012908D00068C0F381000228DD
:102600000AD1D9F80000400206D52868800337D5E2
:1026100060680028E1D033E06068B0F5803F10D0FA
:10262000B0F5A02F286810D020F4803028602868EA
:1026300020F4802028606068A8B1FFF7AFFC064650
:102640000DE0286840F48030F4E740F480202860F2
:10265000F7E700BFFFF7A2FC801B642873D8286847
:102660008003F7D50CE0FFF799FC064605E000BFB4
:10267000FFF794FC801B6428F0D828688003F7D407
:102680002078DFF8AC8280074FF0000A3ED5A748DB
:10269000001D016811F00C0F08D00068C0F3810024
:1026A00002280BD1D9F80000400207D4286880071F
:1026B00016D5E068012800D112E033E1E068B8B136
:1026C0000120C8F80000FFF769FC064605E000BFDE
:1026D000FFF764FC801B0228C0D828688007F7D564
:1026E0002868216920F0F80040EAC10028600DE068
:1026F000C8F800A0FFF752FC064604E0FFF74EFCC6
:10270000801B02281FD828688007F7D4207800078C
:1027100022D5864F87486169703771B10121016008
:10272000FFF73CFC064604E0FFF738FC801B02285C
:1027300009D838688007F7D50EE0C0F800A0FFF789
:102740002DFC064605E082E0FFF728FC801B0228EE
:102750007DD838688007F7D42078400768D5DFF83F
:10276000CCB100270BF13C0BDBF80000C0000BD410
:10277000DBF8001041F08051CBF80010DBF80000CE
:10278000012700F0805000906B4E3068C00510D4D7
:10279000306840F480703060FFF700FC009005E086
:1027A000FFF7FCFB0099401A022850D83068C0059A
:1027B000F6D55E4EA0686C3601280FD0052830682B
:1027C00010D020F001003060306820F0040030604C
:1027D000A068B8B1FFF7E2FB00900FE0306840F06E
:1027E0000100F4E740F004003060F7E7FFF7D6FBA4
:1027F0000099411A41F28830814266D830688007DA
:10280000F4D50EE0FFF7CAFB009007E0FFF7C6FB28
:102810000099411A41F28830814256D830688007C9
:10282000F4D42FB1DBF8001021F08051CBF8001068
:10283000A069C8B33D49091D0968C1F38101022996
:102840004AD00228504607D0C8F8600000E03CE0BB
:10285000FFF7A4FB04463BE04746C8F86000FFF7DB
:102860009DFB064605E000BFFFF798FB801B022892
:102870002BD828688001F7D4D4E907010843A16A5E
:102880002E4A490802EB0141626A41EA821108437B
:1028900094F82C1040EA0161C9F800100120386654
:1028A000FFF77CFB044606E03EE000BFFFF776FB47
:1028B000001B022809D828688001F7D534E000BF42
:1028C000FFF76CFB001B022802D90320BDE8F88F3C
:1028D00028688001F4D427E00128F7D0D9F8000057
:1028E000E26900F4800191421CD1226A00F03F01AC
:1028F000914217D147F6C071626A0140B1EB821F65
:1029000010D1A26A4FF0FF3300F4403103EB5202C2
:10291000B1EB024F06D194F82C1000F07060B0EBD0
:10292000016F01D00120D1E70020CFE70438024039
:1029300000004742800E4742007000400000FFFF49
:1029400010B5401EB0F1807F01D3012010BD4FF0C3
:10295000E02460610F21601701F013FA0020A061EC
:1029600007202061002010BD7047704770B590F8B7
:102970003C20012A2CD0012480F83C40022280F81F
:102980003D2003685A689D6822F070060A68324349
:102990005A60104B02689A420ED0B2F1804F0BD0B1
:1029A0000D4B9A4208D00D4B9A4205D00C4B9A42DF
:1029B00002D00C4B9A4204D1496825F08003194398
:1029C000916080F83D40002180F83C10084670BDC1
:1029D000022070BD000001400004004000080040DB
:1029E000000C00400040014010B5040003D094F8F2
:1029F0003D0010B107E0012010BD002084F83C002C
:102A0000204600F01FF8022084F83D00211D2068B8
:102A100000F0A6FF012084F8460084F83E0084F808
:102A20003F0084F8400084F8410084F8420084F8B4
:102A3000430084F8440084F8450084F83D000020F9
:102A400010BD000008B500680B49884212D10B4840
:102A5000016841F0020101600068002200F00200FC
:102A6000009011461D20FFF797FCBDE808401D208F
:102A7000FFF784BC08BD000000040040403802405D
:102A800090F83D10012901D001207047022180F803
:102A90003D100168CA6842F00102CA6000680E4930
:102AA00088420ED0B0F1804F0BD00C49884208D03C
:102AB0000B49884205D00B49884202D00A49884216
:102AC00004D1816801F00701062903D0016841F0B3
:102AD0000101016000207047000001400004004037
:102AE00000080040000C00400040014070B5044662
:102AF00090F83C000025012817D0012684F83C609E
:102B0000022084F83D002068826822F0770222F4D7
:102B10007F4282600868502838D00DDC20284FD0D2
:102B200005DC90B3102811D14AE0022070BD302896
:102B300046D040280AD13BE060282FD070280DD025
:102B4000B0F5805F03D0B0F5005F12D0012584F8A6
:102B50003D60002084F83C00284670BDCB68D1E978
:102B60000121206800F04EFF2068816841F0770164
:102B700009E0CB68D1E90121206800F043FF20681B
:102B8000816841F480418160E1E719E0CA684968E1
:102B9000206800F049FF5021206806E0CA684968B3
:102BA000206800F052FF6021206800F035FFCEE77A
:102BB000CA684968206800F037FF40212068F4E7C0
:102BC000226801461046F0E770472DE9F0410446BF
:102BD0000068C66805694FF00007A90713D5B1075B
:102BE00011D5F91E016101202077206880698007D6
:102BF000204602D0FFF7E8FF04E000F07EF8204610
:102C000000F07CF82777680716D5700714D521687F
:102C10006FF004000861022020772068806910F4BA
:102C2000407F204602D0FFF7CFFF04E000F065F8B8
:102C3000204600F063F82777280715D5300713D50D
:102C400021686FF008000861042020772068C069BF
:102C50008007204602D0FFF7B7FF04E000F04DF8F0
:102C6000204600F04BF82777E80616D5F00614D575
:102C700021686FF010000861082020772068C06983
:102C800010F4407F204602D0FFF79EFF04E000F0E2
:102C900034F8204600F032F82777E80708D0F0072C
:102CA00006D021686FF001000861204600F028F886
:102CB000280608D5300606D521686FF08000086127
:102CC0002046FFF751FE680608D5700606D5216834
:102CD0006FF040000861204600F02CF8A8060AD5E5
:102CE000B00608D521686FF0200008612046BDE8D5
:102CF000F041FFF73ABEBDE8F08170477047000031
:102D000010B50068074988420AD141140648FFF708
:102D100038F9BDE8104001220449054800F00CBA1A
:102D200010BD000000040040000802400400002024
:102D3000300100207047704770470000F8B5016807
:102D400004460868CA684B6910F00F0F4FF0000581
:102D500059D003F0010602F49077374365D0C107DC
:102D600005D0D10503D5616C41F0010161644107D3
:102D700005D5D90703D0616C41F002016164810778
:102D800005D5D90703D0616C41F0040161640107E6
:102D900007D502F02001314303D0616C41F00801F6
:102DA0006164616C00293AD0800604D5900602D592
:102DB000204600F08BFE20684069616CC0F38010F3
:102DC000090700D460B3204600F059FE206840692E
:102DD000400621D52068143050E8001F21F0400142
:102DE00040E80012002AF5D1E06BA8B16E490165F8
:102DF000E06BFEF716FE002811D0E06B016D01B00C
:102E0000BDE8F040084783060FD593060DD5204650
:102E1000BDE8F84000F05ABE2046FFF78DFFF8BD30
:102E20002046FFF789FF6564F8BD266B2023012E3D
:102E30007DD1C6067BD5D60679D50868486800904E
:102E400048694FF00206400641D5E16B08684068CA
:102E50000004000CE8D0A28D8242E5D9E085C86963
:102E6000B0F5807F2DD020680C3050E8001F21F491
:102E7000807140E80012002AF5D12068143050E833
:102E8000001F21F0010140E80012002AF5D120685E
:102E9000143050E8001F21F0400140E80012002AE1
:102EA000F5D184F84230256320680C3050E8001FCB
:102EB00021F0100140E80012002AF5D1E06BFEF786
:102EC00067FD6663A08DE18D401A81B22AE0A08D76
:102ED000E18D401A81B2E08D0028A5D00029A3D051
:102EE00022680C3252E8000F20F4907042E800078C
:102EF000002FF5D12068143050E8002F22F0010295
:102F000040E80027002FF5D184F84230256320687F
:102F10000C3050E8002F22F0100240E80023002B74
:102F2000F5D166632046FFF706FFF8BDFFE705060B
:102F30002BD5150629D594F841002128F5D1A06894
:102F4000B0F5805F01D12069B0B1206A411C2162D7
:102F5000216800784860E08C401E0004000CE0848A
:102F6000E3D12068C16821F08001C1602068C16898
:102F700041F04001C160D8E7206A0088C0F3080032
:102F80004860206A801C2062E5E74006CDD55006E7
:102F9000CBD5CA68204622F04002CA6084F841308E
:102FA00000F00EF9C1E700006F3A000870B50400A8
:102FB00004D094F84100002510B106E0012070BD56
:102FC00084F84050204600F023F8242084F8410083
:102FD0002068C16821F40051C160204600F0D8FD8E
:102FE0002068016921F4904101612068416921F064
:102FF0002A0141612068C16841F40051C1606564E3
:10300000202084F8410084F842006563002070BDF0
:1030100010B586B0044614216846FDF750FA1749EA
:103020002068884228D116480021026842F0100228
:103030000260006800F01000059011481438026822
:1030400042F002020260006800F002000590C02019
:1030500000900220CDE90101032003900720049095
:1030600069460848FEF798FE002211462520FFF722
:1030700093F92520FFF782F906B010BD001001403A
:1030800044380240000402402DE9F84F044690F80D
:1030900042009A4616460D46202802D00220BDE87E
:1030A000F88FB5B1AEB100206064222184F84210DF
:1030B0002063FEF773FFA6858146E685A0684FF47E
:1030C00080582027404501D1206920B12E46002597
:1030D00029E00120E3E7002625E04B4600222021DD
:1030E0002046CDF800A000F0F4FD18B184F842703D
:1030F0000320D4E726B1A06840451AD038B108E0D3
:1031000020684068C0F3080025F8020B08E0206939
:1031100078B12068406800F07F0000BF06F8010B1E
:10312000E08D401EE085E08D0028D6D184F8427005
:10313000B5E720684068F1E790F84230202B01D0D5
:103140000220704721B11AB10023036300F0A6BD2D
:103150000120704710B500681649884228D11648EA
:10316000007840281DD114494FF0FF342346042233
:1031700020311248FFF788FF0F49234604222431EB
:103180000E48FFF781FF0C492346042228310B48E3
:10319000FFF77AFF0849234604222C310748FFF73E
:1031A00073FFBDE81040012203490448FFF7C4BF84
:1031B00010BD00000010014004000020300100207C
:1031C0007047FEE710B50021084600F061FA1FA025
:1031D00000F0FCF90021012000F05AFA20A000F0D4
:1031E000F5F90021022000F053FA22A000F0EEF9D8
:1031F0000021032000F04CFA23A000F0E7F90A2197
:10320000002000F045FA254C012094ED080A00F05A
:1032100027FA0A21012000F03BFA012094ED090A67
:1032200000F01EFA0A21022000F032FA012094ED8B
:103230000A0A00F015FA0A21032000F029FA94ED99
:103240000B0ABDE81040002000F00ABA4E4849457C
:103250005420444F3A20202020202A430000000020
:10326000444F20414D3A202020202020202020259E
:1032700000000000444F20414D204441543A20209A
:103280002020202500000000434441533A20202004
:10329000202020202020204C0000000004000020DE
:1032A00001684A69D24352050FD46FF480624A61C3
:1032B000002140F8301F202242738173026942F0DE
:1032C0000402026101730120704700207047000072
:1032D000F8B50446C06A1E460D461746082807D0B2
:1032E000012805D010F5803F02D0206B122804D1B0
:1032F0002068016841F480710160134600224FF09C
:1033000001112046009600F05DF840B12068006889
:10331000C00502D54FF4007020640320F8BD206979
:10332000B0F5804F0ED00620216800EAD51040F09D
:10333000F000086133463A460B49204600F08AF80F
:1033400078B902E005F0FE0000E0E8B2216808610B
:10335000054933463A46891F204600F07BF800288D
:10336000DCD00120F8BD00000800010070B5164651
:103370000D4604461EE02046FFF792FF08B10120EB
:1033800070BD681C16D0FEF709FE801BA84200D84D
:1033900085B920684069C04340070BD5002044F838
:1033A000300F20216173A073216941F02001216158
:1033B0002073E4E720684069C0434007DBD4002065
:1033C00070BD00002DE9F047984617460D460446AB
:1033D000C1F30746DDF820902AE000BFB8F1FF3FB7
:1033E00026D0FEF7DBFDA0EB0901414502D8B8F17C
:1033F000000F1DD12068012E16D0806925EA00003B
:103400000004000C12D00020B84211D1002044F872
:10341000300F20216173A073216941F020012161E7
:1034200020730120BDE8F0874069E7E70120EBE762
:103430002068012E0AD0806925EA00000004000CF3
:1034400006D00020B842C9D00020EBE74069F3E77E
:103450000120F7E72DE9F047984616460D46044649
:103460004FF000094FF0200AC1F3074723E020681E
:103470004069C043400515D42068016841F40071DB
:10348000016021686FF480604861C4F8309084F86E
:103490003DA084F83E90216C41F00401216484F841
:1034A0003C9021E0701C06D0FEF778FDA0EB0800F0
:1034B000B04203D816B1012F1FD021E02068012FA0
:1034C00015D0806925EA00000004000C18D000BF68
:1034D00044F8309F84F80DA084F80E90216941F0E3
:1034E0002001216184F80C900120BDE8F08740693B
:1034F00025EA00000004000CEAD12068406901E0E0
:103500002068806925EA00000004000CAFD1ECE7D8
:1035100070B516460D4604461EE02046FFF7C0FE75
:1035200008B1012070BD681C16D0FEF737FD801B66
:10353000A84200D885B920684069C04300060BD571
:10354000002044F8300F20216173A073216941F0FD
:10355000200121612073E4E720684069C043000630
:10356000DBD4002070BD0000174910B508600320AF
:1035700000F056F83220FEF7A1FB022000F050F8D0
:103580003220FEF79BFB062000F04AF83220FEF7BF
:1035900095FB0C2000F044F83220FEF78FFB28202A
:1035A00000F03EF83220FEF789FB802000F038F86A
:1035B0003220FEF783FB012000F032F8BDE8104016
:1035C0003220FEF77BBB00000000002010B504464F
:1035D00002E0641C00F004F820780028F9D110BD46
:1035E0001CB500F0F00141F00D028DF8042041F00F
:1035F000090100018DF8051040F00D018DF806104D
:1036000040F009008DF8070064200090034804236F
:1036100001AA4E210068FEF78BFD1CBD00000020B2
:103620001CB500F0F00141F00C028DF8042041F0CF
:10363000080100018DF8051040F00C018DF806100E
:1036400040F008008DF80700642000900348042330
:1036500001AA4E210068FEF76BFD1CBD0000002092
:1036600010B5044686B010EE100A00F06BFCCDE9F0
:103670000001234604A2102102A8FCF77FFE02A845
:10368000FFF7A4FF06B010BD252E2A66000000003B
:103690007FB5094D04283CCD8DE83C000BD20029B4
:1036A00009DB142907DA1DF820000844C0B240F0F5
:1036B0008000FFF7B5FF7FBD344000081FB5002133
:1036C0001548009101910291124A0391C0E900212D
:1036D000012404618160047680F820100F4AC0E95B
:1036E0000A21C461C16080F830104461FEF7DAF845
:1036F00008B172B6FEE70820CDE900040720029069
:1037000069460548FEF728F8002801D072B6FEE7A2
:103710001FBD0000002001404C0000200100000FF0
:103720002DE9F04387B014216846FCF7C8FE4448F1
:103730000024016841F004010160016801F0040106
:103740000591016841F001010160016801F001018A
:103750000591016841F0020101600068394F00F0F5
:1037600002004FF400550590002229463846FEF726
:1037700010FCDFF8D480AE00002231464046FEF750
:1037800008FCDFF8C890002238214846FEF701FC0B
:1037900000950125CDE90154694638460394FEF7AA
:1037A000FBFA1F2000904FF40410CDE90105694693
:1037B0004046FEF7F1FA0220CDE90004694648468A
:1037C0000294FEF7E9FA0096CDE9015469464046B5
:1037D0000394FEF7E1FA38200090CDE901546946E0
:1037E00048460394FEF7D8FA002201210620FEF78E
:1037F000D3FD0620FEF7C2FD002201210720FEF7BF
:10380000CBFD0720FEF7BAFD002201210820FEF7BC
:10381000C3FD0820FEF7B2FD002201210920FEF7BA
:10382000BBFD0920FEF7AAFD002201210A20FEF7B8
:10383000B3FD0A20FEF7A2FD07B0BDE8F08300004B
:1038400030380240000802400000024000040240FC
:1038500010B586B000241748009401940294039494
:10386000049413490594016040F2E731C0E9011462
:1038700043F67F61C0E903148461FFF7B5F808B12E
:1038800072B6FEE74FF48050009069460948FFF792
:103890002DF908B172B6FEE7049404A90548059411
:1038A000FFF764F8002801D072B6FEE706B010BD3D
:1038B00000040040E8000020FEE7FEE77047704784
:1038C000FEF702BD10B592B030216846FCF7F7FD57
:1038D00014210CA8FCF7F3FD18480024016841F0FE
:1038E00080510160006800F0805011901448016818
:1038F00021F4404141F4004101600068069400F465
:10390000404011900220009001200390102004906C
:103910006846FEF75FFE08B172B6FEE70F20CDE9FC
:103920000C040E940F9400210CA81094FEF766FD71
:10393000002801D072B6FEE712B010BD4038024038
:10394000007000400248016841F470010160704756
:1039500088ED00E00148FFF738B90000E8000020DA
:10396000F0B50268204B214C9F03214D214E984217
:1039700007D0B84205D0A04203D0A84201D0B0423F
:1039800004D122F0700C4A6842EA0C02984210D02E
:10399000B8420ED0A0420CD0A8420AD0B04208D003
:1039A000154CA04205D0154CA04202D0144CA042A8
:1039B00003D122F44074CA6822434C6922F0800289
:1039C000224302608A68C2620A688262984201D118
:1039D00009690163012141610169C90703D00169D6
:1039E00021F001010161F0BD000001400004004030
:1039F00000080040000C004000400140004401402D
:103A00000048014010B5846842EA032224F47F4450
:103A10000A432243826010BD826822F070020A438A
:103A200042F007018160704710B5036A046A24F010
:103A300001040462846924F0F00444EA021423F0CF
:103A40000A020A438461026210BD10B5036A046A67
:103A500024F010040462846923F0A00324F4704469
:103A600044EA023243EA01118261016210BD10B5DD
:103A7000806B0021C185C184FFF75EF910BD01682C
:103A80000C3151E8002F22F4907241E80023002B02
:103A9000F5D10168143151E8002F22F0010241E80C
:103AA0000023002BF5D1016B012909D101680C31EC
:103AB00051E8002F22F0100241E80023002BF5D13D
:103AC000202180F8421000210163704708B590F86A
:103AD0004210222901D0022008BD82684FF4805391
:103AE0009A4201D1016921B1816A9A421BD04AB13F
:103AF0000AE00268816A5268C2F308020A80816A99
:103B0000891C08E0026972B10268526802F07F0203
:103B10000A70816A491C8162C18D491E0904090C21
:103B2000C18503D01BE002685268F1E70168CA68EA
:103B300022F02002CA600168CA6822F48072CA605A
:103B400001684A6922F001024A61202180F842108E
:103B500000214163026B012A03D0FFF7FBFA00202A
:103B600008BD016301680C3151E8002F22F01002FA
:103B700041E80023002BF5D101680A68D20602D57E
:103B80000A6849680091818DFFF7D5F8E7E70000E2
:103B900070B5044600680169E26821F440511143A0
:103BA00001612169A068E269084361691143084322
:103BB0002168CA6849F20C639A430243CA602068CC
:103BC0004169A26921F44071114341613149206882
:103BD000884202D03049884202D1FEF7B9FC01E0A8
:103BE000FEF7A6FCE2690023192164253226B2F50E
:103BF000004F626828D0A0FB0101930F9200FCF7F0
:103C000045FB0146B0FBF5F06FF01802504301EBA5
:103C1000800006EB0010B0FBF5F000F0F002B1FB05
:103C2000F5F002EB0012B1FBF5F06FF0180358430A
:103C300001EB800006EB0010B0FBF5F000F00F0088
:103C400021681044886070BDA0FB010192185B419F
:103C5000FCF71CFB0146B0FBF5F00201B1FBF5F0EF
:103C60006FF01803584301EB800006EBC000B0FB77
:103C7000F5F000F0F80002EB4002B1FBF5F058431C
:103C800001EB800006EBC000B0FBF5F000F0070090
:103C9000D6E70000001001400014014081628285D7
:103CA000C28500214164222180F84210016921B1BE
:103CB0000168CA6842F48072CA6001684A6942F0C9
:103CC00001024A610068C16841F02001C160002022
:103CD00070472DE9F843984617460D460446089E5E
:103CE00024E0701C22D0FEF759F9A0EB0800B04286
:103CF0001AD8CEB12068C168490717D5802D15D0D4
:103D0000402D13D00168C94309070FD4016800256D
:103D1000406800902046FFF7B2FE0820606484F8F7
:103D200040500120BDE8F8830320FBE720680068CD
:103D300035EA000004D00020B842D2D00020F1E7DC
:103D40000120F9E70148FEF7F9BF0000300100202B
:103D5000FEE703B401984100009850EAC12018BF63
:103D600004204A0D18BF40F0010040F2FF72B2EB90
:103D7000515F08BF40F00200012808BF052002B0D3
:103D800070470907090E002804DB00F1E02080F8E5
:103D90000014704700F00F0000F1E02080F8141DBF
:103DA000704730380A2801D2012070470020704740
:103DB00008B5FEF791FAFFF785FDFFF7B1FC3A4829
:103DC0000024016841F4800101600068224600F48B
:103DD0008000009021463820FEF7DEFA3820FEF7FA
:103DE000CDFAFFF76BFC3248304901603149C0E938
:103DF00001144FF48041C0E9034144618461C4610E
:103E00000462FEF7D1F808B172B6FEE7FFF720FDB5
:103E1000274829499C3001604FF4E131C0E9011481
:103E20000C21C460C0E904418461C461FFF7BEF89D
:103E300008B172B6FEE71E48FFF796FB1C485430E7
:103E4000FEF71EFE1D4D002108466C60FFF720FCAA
:103E50001BA0FFF7BBFB00210120FFF719FC1DA0F1
:103E6000FFF7B4FB00210220FFF712FC1DA0FFF7B3
:103E7000ADFB00210320FFF70BFC1FA0FFF7A6FB03
:103E80004FF47A7407E000BFFDF730FC03E002292D
:103E900001D1FDF747FB2046FDF710FFFFF792F930
:103EA00069680029F3D1EFE7303802400054004040
:103EB00094000020A08601000010014004000020B2
:103EC00020202020204E484F4D2033342020202019
:103ED000000000004E677579656E205175792043AA
:103EE0006F6E67004E677579656E20447579204B5B
:103EF00068616E6800000000202043752056616EE6
:103F00002044756F6E6720200000000010B5002966
:103F10000AD00878002807D005487844FCF75CFEF2
:103F2000002801D0002010BD0248784410BD0000D8
:103F300006020000FE0100000808A0F500114FEA8B
:103F40003101704743004FEAD30C4FEA3C0C434029
:103F50001FBF40070CF1605113F0FE4F70471CF07B
:103F6000006F03D100200CF0004170470CF00043BB
:103F700043EA507010B540EACC0000F00EF800BFE4
:103F8000000000924FEA0001FFF7D6BF4FF000415A
:103F90004FF00000A1F5002170470EF1020E2EF047
:103FA000030E5EF8044B244204D44FEA4102B2F1FE
:103FB0007F4F11D84FEA4003B3F17F4F0CD80ED199
:103FC0004FEAD07CB2F17F4F0CEB4C0C0CF1020CA1
:103FD00008BF4CEBD17C04E04FF0080C01E04FEA45
:103FE000D17C0CEB4C0324FA03F404F00704B4F185
:103FF000040C06D20EEB840CBDE810404CF0010C12
:104000006047DFE80CF0070802024FF00040A0F51F
:10401000800010BD0846420018BFD2F1807288BFF0
:1040200000F0004010BD4FF04070E1EE100A704704
:10403000FCF748BB80000000C000000090000000BA
:10404000D000000000061016000610160000000048
:104050000000000001020304060708090000000038
:104060000102030402400000000000A00000000064
:1040700005400000000000C8000000000C400000E7
:104080000000409C00000000194000000020BCBE61
:104090000000000034400000BFC91B8E0000000477
:1040A000B5400000504BCFD06607E2CF01000000C2
:1040B0006C4100003E8251AADFEEA73401000000EF
:1040C000D9420000DCB5A0E23A301F97FFFFFFFFA6
:1040D000B4450000FD25A0C8E9A3C14FFFFFFFFFC5
:1040E000FF3F00000000008000000000FF3F0000D4
:1040F00000000080000000004F4646004F4E0000C8
:104100003C410008000000204C000000D0010008E5
:10411000884100084C000020EC070000EC0100087A
:104120001C00000043000000F8FFFFFF0C0000002F
:104130000E0000000F0000002E0000000000000034
:10414000000000000000000000000000000000006F
:10415000000000000000000000000000000000005F
:10416000000000000000000000000000000000004F
:10417000F8400008FC4000080100000010000000AA
:08418000000000000024F4001F
:040000050800019559
:00000001FF
